{
  "contractName": "Faucet",
  "abi": [
    {
      "constant": true,
      "inputs": [],
      "name": "minTopUp",
      "outputs": [
        {
          "name": "",
          "type": "uint256"
        }
      ],
      "payable": false,
      "stateMutability": "view",
      "type": "function",
      "signature": "0x067fb8b1"
    },
    {
      "constant": true,
      "inputs": [
        {
          "name": "",
          "type": "address"
        }
      ],
      "name": "topUpRecords",
      "outputs": [
        {
          "name": "",
          "type": "uint256"
        }
      ],
      "payable": false,
      "stateMutability": "view",
      "type": "function",
      "signature": "0x77ee374b"
    },
    {
      "constant": true,
      "inputs": [],
      "name": "topUpLimit",
      "outputs": [
        {
          "name": "",
          "type": "uint256"
        }
      ],
      "payable": false,
      "stateMutability": "view",
      "type": "function",
      "signature": "0x83d02803"
    },
    {
      "constant": true,
      "inputs": [],
      "name": "owner",
      "outputs": [
        {
          "name": "",
          "type": "address"
        }
      ],
      "payable": false,
      "stateMutability": "view",
      "type": "function",
      "signature": "0x8da5cb5b"
    },
    {
      "constant": true,
      "inputs": [],
      "name": "isOwner",
      "outputs": [
        {
          "name": "",
          "type": "bool"
        }
      ],
      "payable": false,
      "stateMutability": "view",
      "type": "function",
      "signature": "0x8f32d59b"
    },
    {
      "constant": true,
      "inputs": [],
      "name": "balance",
      "outputs": [
        {
          "name": "",
          "type": "uint256"
        }
      ],
      "payable": false,
      "stateMutability": "view",
      "type": "function",
      "signature": "0xb69ef8a8"
    },
    {
      "constant": false,
      "inputs": [
        {
          "name": "newOwner",
          "type": "address"
        }
      ],
      "name": "transferOwnership",
      "outputs": [],
      "payable": false,
      "stateMutability": "nonpayable",
      "type": "function",
      "signature": "0xf2fde38b"
    },
    {
      "inputs": [],
      "payable": false,
      "stateMutability": "nonpayable",
      "type": "constructor",
      "signature": "constructor"
    },
    {
      "payable": true,
      "stateMutability": "payable",
      "type": "fallback"
    },
    {
      "anonymous": false,
      "inputs": [
        {
          "indexed": true,
          "name": "previousOwner",
          "type": "address"
        },
        {
          "indexed": true,
          "name": "newOwner",
          "type": "address"
        }
      ],
      "name": "OwnershipTransferred",
      "type": "event",
      "signature": "0x8be0079c531659141344cd1fd0a4f28419497f9722a3daafe3b4186f6b6457e0"
    },
    {
      "constant": false,
      "inputs": [
        {
          "name": "_nextLimit",
          "type": "uint256"
        }
      ],
      "name": "setNewLimit",
      "outputs": [],
      "payable": false,
      "stateMutability": "nonpayable",
      "type": "function",
      "signature": "0xd7e612d1"
    },
    {
      "constant": false,
      "inputs": [
        {
          "name": "_beneficiary",
          "type": "address"
        },
        {
          "name": "_requestAmount",
          "type": "uint256"
        }
      ],
      "name": "topUp",
      "outputs": [],
      "payable": false,
      "stateMutability": "nonpayable",
      "type": "function",
      "signature": "0xd6f7ddf9"
    }
  ],
  "bytecode": "0x60806040526012600a0a6002026001556012600a0a60010260025534801561002657600080fd5b50336000806101000a81548173ffffffffffffffffffffffffffffffffffffffff021916908373ffffffffffffffffffffffffffffffffffffffff1602179055506000809054906101000a900473ffffffffffffffffffffffffffffffffffffffff1673ffffffffffffffffffffffffffffffffffffffff16600073ffffffffffffffffffffffffffffffffffffffff167f8be0079c531659141344cd1fd0a4f28419497f9722a3daafe3b4186f6b6457e060405160405180910390a36106d1806100f26000396000f3fe608060405260043610610093576000357c010000000000000000000000000000000000000000000000000000000090048063067fb8b1146100b057806377ee374b146100db57806383d02803146101405780638da5cb5b1461016b5780638f32d59b146101c2578063b69ef8a8146101f1578063d6f7ddf91461021c578063d7e612d114610277578063f2fde38b146102b2575b6100a83460045461030390919063ffffffff16565b600481905550005b3480156100bc57600080fd5b506100c5610324565b6040518082815260200191505060405180910390f35b3480156100e757600080fd5b5061012a600480360360208110156100fe57600080fd5b81019080803573ffffffffffffffffffffffffffffffffffffffff16906020019092919050505061032a565b6040518082815260200191505060405180910390f35b34801561014c57600080fd5b50610155610342565b6040518082815260200191505060405180910390f35b34801561017757600080fd5b50610180610348565b604051808273ffffffffffffffffffffffffffffffffffffffff1673ffffffffffffffffffffffffffffffffffffffff16815260200191505060405180910390f35b3480156101ce57600080fd5b506101d7610371565b604051808215151515815260200191505060405180910390f35b3480156101fd57600080fd5b506102066103c8565b6040518082815260200191505060405180910390f35b34801561022857600080fd5b506102756004803603604081101561023f57600080fd5b81019080803573ffffffffffffffffffffffffffffffffffffffff169060200190929190803590602001909291905050506103ce565b005b34801561028357600080fd5b506102b06004803603602081101561029a57600080fd5b810190808035906020019092919050505061053c565b005b3480156102be57600080fd5b50610301600480360360208110156102d557600080fd5b81019080803573ffffffffffffffffffffffffffffffffffffffff16906020019092919050505061056a565b005b600080828401905083811015151561031a57600080fd5b8091505092915050565b60025481565b60036020528060005260406000206000915090505481565b60015481565b60008060009054906101000a900473ffffffffffffffffffffffffffffffffffffffff16905090565b60008060009054906101000a900473ffffffffffffffffffffffffffffffffffffffff1673ffffffffffffffffffffffffffffffffffffffff163373ffffffffffffffffffffffffffffffffffffffff1614905090565b60045481565b80600454101515156103df57600080fd5b600154610434600360008573ffffffffffffffffffffffffffffffffffffffff1673ffffffffffffffffffffffffffffffffffffffff168152602001908152602001600020548361030390919063ffffffff16565b1115151561044157600080fd5b610493600360008473ffffffffffffffffffffffffffffffffffffffff1673ffffffffffffffffffffffffffffffffffffffff168152602001908152602001600020548261030390919063ffffffff16565b600360008473ffffffffffffffffffffffffffffffffffffffff1673ffffffffffffffffffffffffffffffffffffffff168152602001908152602001600020819055506104eb8160045461058990919063ffffffff16565b6004819055508173ffffffffffffffffffffffffffffffffffffffff166108fc829081150290604051600060405180830381858888f19350505050158015610537573d6000803e3d6000fd5b505050565b610544610371565b151561054f57600080fd5b600254811015151561056057600080fd5b8060018190555050565b610572610371565b151561057d57600080fd5b610586816105ab565b50565b600082821115151561059a57600080fd5b600082840390508091505092915050565b600073ffffffffffffffffffffffffffffffffffffffff168173ffffffffffffffffffffffffffffffffffffffff16141515156105e757600080fd5b8073ffffffffffffffffffffffffffffffffffffffff166000809054906101000a900473ffffffffffffffffffffffffffffffffffffffff1673ffffffffffffffffffffffffffffffffffffffff167f8be0079c531659141344cd1fd0a4f28419497f9722a3daafe3b4186f6b6457e060405160405180910390a3806000806101000a81548173ffffffffffffffffffffffffffffffffffffffff021916908373ffffffffffffffffffffffffffffffffffffffff1602179055505056fea165627a7a7230582068acd050a818d5c329bd5621382bb12bbd871864b50e8ac159f04c1a4c0066a90029",
  "source": "pragma solidity ^0.5.0;\n\nimport './utils/SafeMath.sol';\nimport './utils/Ownable.sol';\n\ncontract Faucet is Ownable {\n    using SafeMath for uint256;\n\n    uint256 private constant decimalFactor = 10 ** uint256(18);\n\n    uint public topUpLimit = 2 * decimalFactor;\n    uint public minTopUp = 1 * decimalFactor;\n    mapping(address => uint) public topUpRecords;\n    uint public balance;\n\n    constructor() public {\n    }\n\n    function() external payable {\n        balance = balance.add(msg.value);\n    }\n\n    function setNewLimit(uint256 _nextLimit) onlyOwner public {\n        require(_nextLimit >= minTopUp);\n        topUpLimit = _nextLimit;\n    }\n\n    function topUp(address payable _beneficiary, uint256 _requestAmount) public {\n        require(balance >= _requestAmount);\n        require(_requestAmount.add(topUpRecords[_beneficiary]) <= topUpLimit);\n\n        topUpRecords[_beneficiary] = _requestAmount.add(topUpRecords[_beneficiary]);\n        balance = balance.sub(_requestAmount);\n        _beneficiary.transfer(_requestAmount);\n    }\n}",
  "sourcePath": "/home/ggarrido/lightstreams/workspace/lightstreams-demo/server/contracts/Faucet.sol",
  "compiler": {
    "name": "solc",
    "version": "0.5.1+commit.c8a2cb62.Emscripten.clang"
  },
  "schemaVersion": "3.0.6",
  "updatedAt": "2019-05-21T11:17:49.199Z",
  "devdoc": {
    "methods": {
      "isOwner()": {
        "return": "true if `msg.sender` is the owner of the contract."
      },
      "owner()": {
        "return": "the address of the owner."
      },
      "transferOwnership(address)": {
        "details": "Allows the current owner to transfer control of the contract to a newOwner.",
        "params": {
          "newOwner": "The address to transfer ownership to."
        }
      }
    }
  },
  "userdoc": {
    "methods": {}
  }
}