{
  "contractName": "Faucet",
  "abi": [
    {
      "constant": true,
      "inputs": [],
      "name": "minTopUp",
      "outputs": [
        {
          "name": "",
          "type": "uint256"
        }
      ],
      "payable": false,
      "stateMutability": "view",
      "type": "function",
      "signature": "0x067fb8b1"
    },
    {
      "constant": true,
      "inputs": [
        {
          "name": "",
          "type": "address"
        }
      ],
      "name": "topUpRecords",
      "outputs": [
        {
          "name": "",
          "type": "uint256"
        }
      ],
      "payable": false,
      "stateMutability": "view",
      "type": "function",
      "signature": "0x77ee374b"
    },
    {
      "constant": true,
      "inputs": [],
      "name": "topUpLimit",
      "outputs": [
        {
          "name": "",
          "type": "uint256"
        }
      ],
      "payable": false,
      "stateMutability": "view",
      "type": "function",
      "signature": "0x83d02803"
    },
    {
      "constant": true,
      "inputs": [],
      "name": "owner",
      "outputs": [
        {
          "name": "",
          "type": "address"
        }
      ],
      "payable": false,
      "stateMutability": "view",
      "type": "function",
      "signature": "0x8da5cb5b"
    },
    {
      "constant": true,
      "inputs": [],
      "name": "isOwner",
      "outputs": [
        {
          "name": "",
          "type": "bool"
        }
      ],
      "payable": false,
      "stateMutability": "view",
      "type": "function",
      "signature": "0x8f32d59b"
    },
    {
      "constant": true,
      "inputs": [],
      "name": "balance",
      "outputs": [
        {
          "name": "",
          "type": "uint256"
        }
      ],
      "payable": false,
      "stateMutability": "view",
      "type": "function",
      "signature": "0xb69ef8a8"
    },
    {
      "constant": false,
      "inputs": [
        {
          "name": "newOwner",
          "type": "address"
        }
      ],
      "name": "transferOwnership",
      "outputs": [],
      "payable": false,
      "stateMutability": "nonpayable",
      "type": "function",
      "signature": "0xf2fde38b"
    },
    {
      "inputs": [],
      "payable": false,
      "stateMutability": "nonpayable",
      "type": "constructor",
      "signature": "constructor"
    },
    {
      "payable": true,
      "stateMutability": "payable",
      "type": "fallback"
    },
    {
      "anonymous": false,
      "inputs": [
        {
          "indexed": true,
          "name": "previousOwner",
          "type": "address"
        },
        {
          "indexed": true,
          "name": "newOwner",
          "type": "address"
        }
      ],
      "name": "OwnershipTransferred",
      "type": "event",
      "signature": "0x8be0079c531659141344cd1fd0a4f28419497f9722a3daafe3b4186f6b6457e0"
    },
    {
      "constant": false,
      "inputs": [
        {
          "name": "_nextLimit",
          "type": "uint256"
        }
      ],
      "name": "setNewLimit",
      "outputs": [],
      "payable": false,
      "stateMutability": "nonpayable",
      "type": "function",
      "signature": "0xd7e612d1"
    },
    {
      "constant": false,
      "inputs": [
        {
          "name": "_beneficiary",
          "type": "address"
        },
        {
          "name": "_requestAmount",
          "type": "uint256"
        }
      ],
      "name": "topUp",
      "outputs": [],
      "payable": false,
      "stateMutability": "nonpayable",
      "type": "function",
      "signature": "0xd6f7ddf9"
    },
    {
      "constant": true,
      "inputs": [
        {
          "name": "_beneficiary",
          "type": "address"
        }
      ],
      "name": "remainingAmount",
      "outputs": [
        {
          "name": "",
          "type": "uint256"
        }
      ],
      "payable": false,
      "stateMutability": "view",
      "type": "function",
      "signature": "0x5a849419"
    }
  ],
  "bytecode": "0x60806040526012600a0a600a026001556012600a0a60010260025534801561002657600080fd5b50336000806101000a81548173ffffffffffffffffffffffffffffffffffffffff021916908373ffffffffffffffffffffffffffffffffffffffff1602179055506000809054906101000a900473ffffffffffffffffffffffffffffffffffffffff1673ffffffffffffffffffffffffffffffffffffffff16600073ffffffffffffffffffffffffffffffffffffffff167f8be0079c531659141344cd1fd0a4f28419497f9722a3daafe3b4186f6b6457e060405160405180910390a361079e806100f26000396000f3fe60806040526004361061009e576000357c010000000000000000000000000000000000000000000000000000000090048063067fb8b1146100bb5780635a849419146100e657806377ee374b1461014b57806383d02803146101b05780638da5cb5b146101db5780638f32d59b14610232578063b69ef8a814610261578063d6f7ddf91461028c578063d7e612d1146102e7578063f2fde38b14610322575b6100b33460045461037390919063ffffffff16565b600481905550005b3480156100c757600080fd5b506100d0610394565b6040518082815260200191505060405180910390f35b3480156100f257600080fd5b506101356004803603602081101561010957600080fd5b81019080803573ffffffffffffffffffffffffffffffffffffffff16906020019092919050505061039a565b6040518082815260200191505060405180910390f35b34801561015757600080fd5b5061019a6004803603602081101561016e57600080fd5b81019080803573ffffffffffffffffffffffffffffffffffffffff1690602001909291905050506103f7565b6040518082815260200191505060405180910390f35b3480156101bc57600080fd5b506101c561040f565b6040518082815260200191505060405180910390f35b3480156101e757600080fd5b506101f0610415565b604051808273ffffffffffffffffffffffffffffffffffffffff1673ffffffffffffffffffffffffffffffffffffffff16815260200191505060405180910390f35b34801561023e57600080fd5b5061024761043e565b604051808215151515815260200191505060405180910390f35b34801561026d57600080fd5b50610276610495565b6040518082815260200191505060405180910390f35b34801561029857600080fd5b506102e5600480360360408110156102af57600080fd5b81019080803573ffffffffffffffffffffffffffffffffffffffff1690602001909291908035906020019092919050505061049b565b005b3480156102f357600080fd5b506103206004803603602081101561030a57600080fd5b8101908080359060200190929190505050610609565b005b34801561032e57600080fd5b506103716004803603602081101561034557600080fd5b81019080803573ffffffffffffffffffffffffffffffffffffffff169060200190929190505050610637565b005b600080828401905083811015151561038a57600080fd5b8091505092915050565b60025481565b60006103f0600360008473ffffffffffffffffffffffffffffffffffffffff1673ffffffffffffffffffffffffffffffffffffffff1681526020019081526020016000205460015461065690919063ffffffff16565b9050919050565b60036020528060005260406000206000915090505481565b60015481565b60008060009054906101000a900473ffffffffffffffffffffffffffffffffffffffff16905090565b60008060009054906101000a900473ffffffffffffffffffffffffffffffffffffffff1673ffffffffffffffffffffffffffffffffffffffff163373ffffffffffffffffffffffffffffffffffffffff1614905090565b60045481565b80600454101515156104ac57600080fd5b600154610501600360008573ffffffffffffffffffffffffffffffffffffffff1673ffffffffffffffffffffffffffffffffffffffff168152602001908152602001600020548361037390919063ffffffff16565b1115151561050e57600080fd5b610560600360008473ffffffffffffffffffffffffffffffffffffffff1673ffffffffffffffffffffffffffffffffffffffff168152602001908152602001600020548261037390919063ffffffff16565b600360008473ffffffffffffffffffffffffffffffffffffffff1673ffffffffffffffffffffffffffffffffffffffff168152602001908152602001600020819055506105b88160045461065690919063ffffffff16565b6004819055508173ffffffffffffffffffffffffffffffffffffffff166108fc829081150290604051600060405180830381858888f19350505050158015610604573d6000803e3d6000fd5b505050565b61061161043e565b151561061c57600080fd5b600254811015151561062d57600080fd5b8060018190555050565b61063f61043e565b151561064a57600080fd5b61065381610678565b50565b600082821115151561066757600080fd5b600082840390508091505092915050565b600073ffffffffffffffffffffffffffffffffffffffff168173ffffffffffffffffffffffffffffffffffffffff16141515156106b457600080fd5b8073ffffffffffffffffffffffffffffffffffffffff166000809054906101000a900473ffffffffffffffffffffffffffffffffffffffff1673ffffffffffffffffffffffffffffffffffffffff167f8be0079c531659141344cd1fd0a4f28419497f9722a3daafe3b4186f6b6457e060405160405180910390a3806000806101000a81548173ffffffffffffffffffffffffffffffffffffffff021916908373ffffffffffffffffffffffffffffffffffffffff1602179055505056fea165627a7a72305820595f78783c9a52072c75d9639fbcb9546942e4226948a92b4803c71e076e83410029",
  "source": "pragma solidity ^0.5.0;\n\nimport './utils/SafeMath.sol';\nimport './utils/Ownable.sol';\n\ncontract Faucet is Ownable {\n    using SafeMath for uint256;\n\n    uint256 private constant decimalFactor = 10 ** uint256(18);\n\n    uint256 public topUpLimit = 10 * decimalFactor;\n    uint256 public minTopUp = 1 * decimalFactor;\n    mapping(address => uint256) public topUpRecords;\n    uint256 public balance;\n\n    constructor() public {\n    }\n\n    function() external payable {\n        balance = balance.add(msg.value);\n    }\n\n    function setNewLimit(uint256 _nextLimit) onlyOwner public {\n        require(_nextLimit >= minTopUp);\n        topUpLimit = _nextLimit;\n    }\n\n    function topUp(address payable _beneficiary, uint256 _requestAmount) public {\n        require(balance >= _requestAmount);\n        require(_requestAmount.add(topUpRecords[_beneficiary]) <= topUpLimit);\n\n        topUpRecords[_beneficiary] = _requestAmount.add(topUpRecords[_beneficiary]);\n        balance = balance.sub(_requestAmount);\n        _beneficiary.transfer(_requestAmount);\n    }\n\n    function remainingAmount(address _beneficiary) public view returns (uint256) {\n        return topUpLimit.sub(topUpRecords[_beneficiary]);\n    }\n}",
  "sourcePath": "/home/ggarrido/lightstreams/workspace/lightstreams-demo/server/contracts/Faucet.sol",
  "compiler": {
    "name": "solc",
    "version": "0.5.1+commit.c8a2cb62.Emscripten.clang"
  },
  "schemaVersion": "3.0.6",
  "updatedAt": "2019-05-24T11:55:47.528Z",
  "devdoc": {
    "methods": {
      "isOwner()": {
        "return": "true if `msg.sender` is the owner of the contract."
      },
      "owner()": {
        "return": "the address of the owner."
      },
      "transferOwnership(address)": {
        "details": "Allows the current owner to transfer control of the contract to a newOwner.",
        "params": {
          "newOwner": "The address to transfer ownership to."
        }
      }
    }
  },
  "userdoc": {
    "methods": {}
  }
}