{
  "contractName": "PermissionedFile",
  "abi": [
    {
      "constant": true,
      "inputs": [
        {
          "name": "account",
          "type": "address"
        }
      ],
      "name": "hasAdmin",
      "outputs": [
        {
          "name": "hasAdminAccess",
          "type": "bool"
        }
      ],
      "payable": false,
      "stateMutability": "view",
      "type": "function"
    },
    {
      "constant": false,
      "inputs": [
        {
          "name": "account",
          "type": "address"
        }
      ],
      "name": "grantAdmin",
      "outputs": [],
      "payable": false,
      "stateMutability": "nonpayable",
      "type": "function"
    },
    {
      "constant": false,
      "inputs": [
        {
          "name": "account",
          "type": "address"
        }
      ],
      "name": "grantRead",
      "outputs": [],
      "payable": false,
      "stateMutability": "nonpayable",
      "type": "function"
    },
    {
      "constant": false,
      "inputs": [
        {
          "name": "account",
          "type": "address"
        }
      ],
      "name": "grantWrite",
      "outputs": [],
      "payable": false,
      "stateMutability": "nonpayable",
      "type": "function"
    },
    {
      "constant": false,
      "inputs": [
        {
          "name": "account",
          "type": "address"
        }
      ],
      "name": "revokeAccess",
      "outputs": [],
      "payable": false,
      "stateMutability": "nonpayable",
      "type": "function"
    },
    {
      "constant": true,
      "inputs": [],
      "name": "getOwner",
      "outputs": [
        {
          "name": "fileOwner",
          "type": "address"
        }
      ],
      "payable": false,
      "stateMutability": "view",
      "type": "function"
    },
    {
      "constant": true,
      "inputs": [],
      "name": "owner",
      "outputs": [
        {
          "name": "",
          "type": "address"
        }
      ],
      "payable": false,
      "stateMutability": "view",
      "type": "function"
    },
    {
      "constant": true,
      "inputs": [
        {
          "name": "account",
          "type": "address"
        }
      ],
      "name": "hasRead",
      "outputs": [
        {
          "name": "hasReadAccess",
          "type": "bool"
        }
      ],
      "payable": false,
      "stateMutability": "view",
      "type": "function"
    },
    {
      "inputs": [
        {
          "name": "_owner",
          "type": "address"
        }
      ],
      "payable": false,
      "stateMutability": "nonpayable",
      "type": "constructor"
    },
    {
      "anonymous": false,
      "inputs": [
        {
          "indexed": false,
          "name": "account",
          "type": "address"
        },
        {
          "indexed": false,
          "name": "level",
          "type": "uint8"
        }
      ],
      "name": "PermissionGranted",
      "type": "event"
    }
  ],
  "bytecode": "0x608060405234801561001057600080fd5b50604051602080610de48339810180604052602081101561003057600080fd5b810190808051906020019092919050505080806000806101000a81548173ffffffffffffffffffffffffffffffffffffffff021916908373ffffffffffffffffffffffffffffffffffffffff16021790555060206040519081016040528060038081111561009a57fe5b815250600160008373ffffffffffffffffffffffffffffffffffffffff1673ffffffffffffffffffffffffffffffffffffffff16815260200190815260200160002060008201518160000160006101000a81548160ff0219169083600381111561010057fe5b02179055509050505050610ccb806101196000396000f3fe608060405260043610610088576000357c01000000000000000000000000000000000000000000000000000000009004806335950fed1461008d57806335bb3e16146100f657806370b8cdd5146101475780637e048c211461019857806385e68531146101e9578063893d20e81461023a5780638da5cb5b14610291578063c30fc492146102e8575b600080fd5b34801561009957600080fd5b506100dc600480360360208110156100b057600080fd5b81019080803573ffffffffffffffffffffffffffffffffffffffff169060200190929190505050610351565b604051808215151515815260200191505060405180910390f35b34801561010257600080fd5b506101456004803603602081101561011957600080fd5b81019080803573ffffffffffffffffffffffffffffffffffffffff1690602001909291905050506103c3565b005b34801561015357600080fd5b506101966004803603602081101561016a57600080fd5b81019080803573ffffffffffffffffffffffffffffffffffffffff1690602001909291905050506105c9565b005b3480156101a457600080fd5b506101e7600480360360208110156101bb57600080fd5b81019080803573ffffffffffffffffffffffffffffffffffffffff1690602001909291905050506107d0565b005b3480156101f557600080fd5b506102386004803603602081101561020c57600080fd5b81019080803573ffffffffffffffffffffffffffffffffffffffff1690602001909291905050506109d7565b005b34801561024657600080fd5b5061024f610bde565b604051808273ffffffffffffffffffffffffffffffffffffffff1673ffffffffffffffffffffffffffffffffffffffff16815260200191505060405180910390f35b34801561029d57600080fd5b506102a6610c07565b604051808273ffffffffffffffffffffffffffffffffffffffff1673ffffffffffffffffffffffffffffffffffffffff16815260200191505060405180910390f35b3480156102f457600080fd5b506103376004803603602081101561030b57600080fd5b81019080803573ffffffffffffffffffffffffffffffffffffffff169060200190929190505050610c2c565b604051808215151515815260200191505060405180910390f35b600060038081111561035f57fe5b600160008473ffffffffffffffffffffffffffffffffffffffff1673ffffffffffffffffffffffffffffffffffffffff16815260200190815260200160002060000160009054906101000a900460ff1660038111156103ba57fe5b10159050919050565b6003808111156103cf57fe5b600160003373ffffffffffffffffffffffffffffffffffffffff1673ffffffffffffffffffffffffffffffffffffffff16815260200190815260200160002060000160009054906101000a900460ff16600381111561042a57fe5b101515156104c6576040517f08c379a000000000000000000000000000000000000000000000000000000000815260040180806020018281038252603b8152602001807f4f6e6c79207573657220776974682041646d696e207065726d697373696f6e2081526020017f6c766c2063616e2063616c6c20746869732066756e6374696f6e2e000000000081525060400191505060405180910390fd5b6020604051908101604052806003808111156104de57fe5b815250600160008373ffffffffffffffffffffffffffffffffffffffff1673ffffffffffffffffffffffffffffffffffffffff16815260200190815260200160002060008201518160000160006101000a81548160ff0219169083600381111561054457fe5b02179055509050507f4bb8f5497a4d4a4036670dab8c94b028b3fedc11ce7fbf55f3f57b3a4d355dc7816003604051808373ffffffffffffffffffffffffffffffffffffffff1673ffffffffffffffffffffffffffffffffffffffff1681526020018260038111156105b257fe5b60ff1681526020019250505060405180910390a150565b6003808111156105d557fe5b600160003373ffffffffffffffffffffffffffffffffffffffff1673ffffffffffffffffffffffffffffffffffffffff16815260200190815260200160002060000160009054906101000a900460ff16600381111561063057fe5b101515156106cc576040517f08c379a000000000000000000000000000000000000000000000000000000000815260040180806020018281038252603b8152602001807f4f6e6c79207573657220776974682041646d696e207065726d697373696f6e2081526020017f6c766c2063616e2063616c6c20746869732066756e6374696f6e2e000000000081525060400191505060405180910390fd5b602060405190810160405280600160038111156106e557fe5b815250600160008373ffffffffffffffffffffffffffffffffffffffff1673ffffffffffffffffffffffffffffffffffffffff16815260200190815260200160002060008201518160000160006101000a81548160ff0219169083600381111561074b57fe5b02179055509050507f4bb8f5497a4d4a4036670dab8c94b028b3fedc11ce7fbf55f3f57b3a4d355dc7816001604051808373ffffffffffffffffffffffffffffffffffffffff1673ffffffffffffffffffffffffffffffffffffffff1681526020018260038111156107b957fe5b60ff1681526020019250505060405180910390a150565b6003808111156107dc57fe5b600160003373ffffffffffffffffffffffffffffffffffffffff1673ffffffffffffffffffffffffffffffffffffffff16815260200190815260200160002060000160009054906101000a900460ff16600381111561083757fe5b101515156108d3576040517f08c379a000000000000000000000000000000000000000000000000000000000815260040180806020018281038252603b8152602001807f4f6e6c79207573657220776974682041646d696e207065726d697373696f6e2081526020017f6c766c2063616e2063616c6c20746869732066756e6374696f6e2e000000000081525060400191505060405180910390fd5b602060405190810160405280600260038111156108ec57fe5b815250600160008373ffffffffffffffffffffffffffffffffffffffff1673ffffffffffffffffffffffffffffffffffffffff16815260200190815260200160002060008201518160000160006101000a81548160ff0219169083600381111561095257fe5b02179055509050507f4bb8f5497a4d4a4036670dab8c94b028b3fedc11ce7fbf55f3f57b3a4d355dc7816002604051808373ffffffffffffffffffffffffffffffffffffffff1673ffffffffffffffffffffffffffffffffffffffff1681526020018260038111156109c057fe5b60ff1681526020019250505060405180910390a150565b6003808111156109e357fe5b600160003373ffffffffffffffffffffffffffffffffffffffff1673ffffffffffffffffffffffffffffffffffffffff16815260200190815260200160002060000160009054906101000a900460ff166003811115610a3e57fe5b10151515610ada576040517f08c379a000000000000000000000000000000000000000000000000000000000815260040180806020018281038252603b8152602001807f4f6e6c79207573657220776974682041646d696e207065726d697373696f6e2081526020017f6c766c2063616e2063616c6c20746869732066756e6374696f6e2e000000000081525060400191505060405180910390fd5b60206040519081016040528060006003811115610af357fe5b815250600160008373ffffffffffffffffffffffffffffffffffffffff1673ffffffffffffffffffffffffffffffffffffffff16815260200190815260200160002060008201518160000160006101000a81548160ff02191690836003811115610b5957fe5b02179055509050507f4bb8f5497a4d4a4036670dab8c94b028b3fedc11ce7fbf55f3f57b3a4d355dc7816000604051808373ffffffffffffffffffffffffffffffffffffffff1673ffffffffffffffffffffffffffffffffffffffff168152602001826003811115610bc757fe5b60ff1681526020019250505060405180910390a150565b60008060009054906101000a900473ffffffffffffffffffffffffffffffffffffffff16905090565b6000809054906101000a900473ffffffffffffffffffffffffffffffffffffffff1681565b600060016003811115610c3b57fe5b600160008473ffffffffffffffffffffffffffffffffffffffff1673ffffffffffffffffffffffffffffffffffffffff16815260200190815260200160002060000160009054906101000a900460ff166003811115610c9657fe5b1015905091905056fea165627a7a72305820b0065ef844cdf64e3e53365242f081b4019c5c69d8971c5d34d2fa97c33597ee0029",
  "source": "pragma solidity ^0.5.0;\n\ncontract Permissioned {\n    address public owner;\n\n    /**\n     * The higher permission automatically contains all lower permissions.\n     *\n     * E.g, granting WRITE, automatically grants READ permission.\n     *\n     * Do NOT shuffle these values as business logic in Go codebase is based on their order.\n     *\n     * @see go-lightstreams/lethacl/permission.go\n     *\n     * NO_ACCESS uint value is 0\n     * READ      uint value is 1\n     * WRITE     uint value is 2\n     * ADMIN     uint value is 3\n    */\n    enum Level {NO_ACCESS, READ, WRITE, ADMIN}\n\n    struct Permission {\n        Level level;\n    }\n\n    mapping(address => Permission) permissions;\n\n    event PermissionGranted(address account, Level level);\n\n    constructor(address _owner) internal {\n        owner = _owner;\n\n        permissions[_owner] = Permission({\n            level: Level.ADMIN\n        });\n    }\n\n    modifier onlyAdmin {\n        require(permissions[msg.sender].level >= Level.ADMIN, \"Only user with Admin permission lvl can call this function.\");\n        _;\n    }\n\n    function revokeAccess(address account) onlyAdmin public {\n        permissions[account] = Permission({\n            level: Level.NO_ACCESS\n        });\n\n        emit PermissionGranted(account, Level.NO_ACCESS);\n    }\n\n    function grantRead(address account) onlyAdmin public {\n        permissions[account] = Permission({\n            level: Level.READ\n        });\n\n        emit PermissionGranted(account, Level.READ);\n    }\n\n    function grantWrite(address account) onlyAdmin public {\n        permissions[account] = Permission({\n            level: Level.WRITE\n        });\n\n        emit PermissionGranted(account, Level.WRITE);\n    }\n\n    function grantAdmin(address account) onlyAdmin public {\n        permissions[account] = Permission({\n            level: Level.ADMIN\n        });\n\n        emit PermissionGranted(account, Level.ADMIN);\n    }\n\n    function hasRead(address account) public view returns (bool hasReadAccess) {\n        return permissions[account].level >= Level.READ;\n    }\n\n    function hasAdmin(address account) public view returns (bool hasAdminAccess) {\n        return permissions[account].level >= Level.ADMIN;\n    }\n\n    function getOwner() public view returns (address fileOwner) {\n        return owner;\n    }\n}\n\ncontract PermissionedFile is Permissioned {\n    constructor(address _owner) public Permissioned(_owner) {\n    }\n}",
  "sourcePath": "/home/ggarrido/lightstreams/workspace/lightstreams-demo/server/contracts/leth/permissioned_file.sol",
  "compiler": {
    "name": "solc",
    "version": "0.5.1+commit.c8a2cb62.Emscripten.clang"
  },
  "schemaVersion": "3.0.6",
  "updatedAt": "2019-05-22T10:23:21.595Z",
  "devdoc": {
    "methods": {}
  },
  "userdoc": {
    "methods": {}
  }
}