{
  "contractName": "Profile",
  "abi": [
    {
      "constant": true,
      "inputs": [
        {
          "name": "",
          "type": "int32"
        }
      ],
      "name": "items",
      "outputs": [
        {
          "name": "title",
          "type": "string"
        },
        {
          "name": "description",
          "type": "string"
        },
        {
          "name": "meta",
          "type": "string"
        },
        {
          "name": "acl",
          "type": "address"
        }
      ],
      "payable": false,
      "stateMutability": "view",
      "type": "function"
    },
    {
      "constant": true,
      "inputs": [],
      "name": "lastItemId",
      "outputs": [
        {
          "name": "",
          "type": "int32"
        }
      ],
      "payable": false,
      "stateMutability": "view",
      "type": "function"
    },
    {
      "constant": true,
      "inputs": [],
      "name": "owner",
      "outputs": [
        {
          "name": "",
          "type": "address"
        }
      ],
      "payable": false,
      "stateMutability": "view",
      "type": "function"
    },
    {
      "constant": true,
      "inputs": [],
      "name": "isOwner",
      "outputs": [
        {
          "name": "",
          "type": "bool"
        }
      ],
      "payable": false,
      "stateMutability": "view",
      "type": "function"
    },
    {
      "constant": false,
      "inputs": [
        {
          "name": "newOwner",
          "type": "address"
        }
      ],
      "name": "transferOwnership",
      "outputs": [],
      "payable": false,
      "stateMutability": "nonpayable",
      "type": "function"
    },
    {
      "anonymous": false,
      "inputs": [
        {
          "indexed": false,
          "name": "_itemId",
          "type": "int32"
        }
      ],
      "name": "StackItem",
      "type": "event"
    },
    {
      "anonymous": false,
      "inputs": [
        {
          "indexed": true,
          "name": "previousOwner",
          "type": "address"
        },
        {
          "indexed": true,
          "name": "newOwner",
          "type": "address"
        }
      ],
      "name": "OwnershipTransferred",
      "type": "event"
    },
    {
      "constant": false,
      "inputs": [
        {
          "name": "title",
          "type": "string"
        },
        {
          "name": "description",
          "type": "string"
        },
        {
          "name": "meta",
          "type": "string"
        },
        {
          "name": "acl",
          "type": "address"
        }
      ],
      "name": "stackItem",
      "outputs": [],
      "payable": false,
      "stateMutability": "nonpayable",
      "type": "function"
    },
    {
      "constant": true,
      "inputs": [
        {
          "name": "_itemId",
          "type": "int32"
        }
      ],
      "name": "itemAcl",
      "outputs": [
        {
          "name": "",
          "type": "address"
        }
      ],
      "payable": false,
      "stateMutability": "view",
      "type": "function"
    },
    {
      "constant": false,
      "inputs": [
        {
          "name": "itemId",
          "type": "int32"
        },
        {
          "name": "_beneficiary",
          "type": "address"
        }
      ],
      "name": "grantReadAccess",
      "outputs": [],
      "payable": false,
      "stateMutability": "nonpayable",
      "type": "function"
    },
    {
      "constant": false,
      "inputs": [
        {
          "name": "itemId",
          "type": "int32"
        },
        {
          "name": "_beneficiary",
          "type": "address"
        }
      ],
      "name": "revokeAccess",
      "outputs": [],
      "payable": false,
      "stateMutability": "nonpayable",
      "type": "function"
    }
  ],
  "bytecode": "0x60806040527fffffffffffffffffffffffffffffffffffffffffffffffffffffffffffffffff600260006101000a81548163ffffffff021916908360030b63ffffffff160217905550336000806101000a81548173ffffffffffffffffffffffffffffffffffffffff021916908373ffffffffffffffffffffffffffffffffffffffff1602179055506000809054906101000a900473ffffffffffffffffffffffffffffffffffffffff1673ffffffffffffffffffffffffffffffffffffffff16600073ffffffffffffffffffffffffffffffffffffffff167f8be0079c531659141344cd1fd0a4f28419497f9722a3daafe3b4186f6b6457e060405160405180910390a3610f80806101136000396000f3fe608060405260043610610093576000357c0100000000000000000000000000000000000000000000000000000000900480630ea134ff146100985780632822de1c1461025a5780633fd04d20146104705780634d4da643146104a15780637cdfcfaa1461051f5780638da5cb5b1461057d5780638f32d59b146105d4578063f15eb45614610603578063f2fde38b14610661575b600080fd5b3480156100a457600080fd5b506100d4600480360360208110156100bb57600080fd5b81019080803560030b90602001909291905050506106b2565b604051808060200180602001806020018573ffffffffffffffffffffffffffffffffffffffff1673ffffffffffffffffffffffffffffffffffffffff168152602001848103845288818151815260200191508051906020019080838360005b8381101561014e578082015181840152602081019050610133565b50505050905090810190601f16801561017b5780820380516001836020036101000a031916815260200191505b50848103835287818151815260200191508051906020019080838360005b838110156101b4578082015181840152602081019050610199565b50505050905090810190601f1680156101e15780820380516001836020036101000a031916815260200191505b50848103825286818151815260200191508051906020019080838360005b8381101561021a5780820151818401526020810190506101ff565b50505050905090810190601f1680156102475780820380516001836020036101000a031916815260200191505b5097505050505050505060405180910390f35b34801561026657600080fd5b5061046e6004803603608081101561027d57600080fd5b810190808035906020019064010000000081111561029a57600080fd5b8201836020820111156102ac57600080fd5b803590602001918460018302840111640100000000831117156102ce57600080fd5b91908080601f016020809104026020016040519081016040528093929190818152602001838380828437600081840152601f19601f8201169050808301925050505050505091929192908035906020019064010000000081111561033157600080fd5b82018360208201111561034357600080fd5b8035906020019184600183028401116401000000008311171561036557600080fd5b91908080601f016020809104026020016040519081016040528093929190818152602001838380828437600081840152601f19601f820116905080830192505050505050509192919290803590602001906401000000008111156103c857600080fd5b8201836020820111156103da57600080fd5b803590602001918460018302840111640100000000831117156103fc57600080fd5b91908080601f016020809104026020016040519081016040528093929190818152602001838380828437600081840152601f19601f820116905080830192505050505050509192919290803573ffffffffffffffffffffffffffffffffffffffff1690602001909291905050506108ca565b005b34801561047c57600080fd5b50610485610a72565b604051808260030b60030b815260200191505060405180910390f35b3480156104ad57600080fd5b506104dd600480360360208110156104c457600080fd5b81019080803560030b9060200190929190505050610a85565b604051808273ffffffffffffffffffffffffffffffffffffffff1673ffffffffffffffffffffffffffffffffffffffff16815260200191505060405180910390f35b34801561052b57600080fd5b5061057b6004803603604081101561054257600080fd5b81019080803560030b9060200190929190803573ffffffffffffffffffffffffffffffffffffffff169060200190929190505050610acb565b005b34801561058957600080fd5b50610592610bd1565b604051808273ffffffffffffffffffffffffffffffffffffffff1673ffffffffffffffffffffffffffffffffffffffff16815260200191505060405180910390f35b3480156105e057600080fd5b506105e9610bfa565b604051808215151515815260200191505060405180910390f35b34801561060f57600080fd5b5061065f6004803603604081101561062657600080fd5b81019080803560030b9060200190929190803573ffffffffffffffffffffffffffffffffffffffff169060200190929190505050610c51565b005b34801561066d57600080fd5b506106b06004803603602081101561068457600080fd5b81019080803573ffffffffffffffffffffffffffffffffffffffff169060200190929190505050610d57565b005b6001602052806000526040600020600091509050806000018054600181600116156101000203166002900480601f01602080910402602001604051908101604052809291908181526020018280546001816001161561010002031660029004801561075e5780601f106107335761010080835404028352916020019161075e565b820191906000526020600020905b81548152906001019060200180831161074157829003601f168201915b505050505090806001018054600181600116156101000203166002900480601f0160208091040260200160405190810160405280929190818152602001828054600181600116156101000203166002900480156107fc5780601f106107d1576101008083540402835291602001916107fc565b820191906000526020600020905b8154815290600101906020018083116107df57829003601f168201915b505050505090806002018054600181600116156101000203166002900480601f01602080910402602001604051908101604052809291908181526020018280546001816001161561010002031660029004801561089a5780601f1061086f5761010080835404028352916020019161089a565b820191906000526020600020905b81548152906001019060200180831161087d57829003601f168201915b5050505050908060030160009054906101000a900473ffffffffffffffffffffffffffffffffffffffff16905084565b6108d2610bfa565b15156108dd57600080fd5b6001600260009054906101000a900460030b01600260006101000a81548163ffffffff021916908360030b63ffffffff16021790555061091b610e70565b6080604051908101604052808681526020018581526020018481526020018373ffffffffffffffffffffffffffffffffffffffff1681525090508060016000600260009054906101000a900460030b60030b60030b8152602001908152602001600020600082015181600001908051906020019061099a929190610eaf565b5060208201518160010190805190602001906109b7929190610eaf565b5060408201518160020190805190602001906109d4929190610eaf565b5060608201518160030160006101000a81548173ffffffffffffffffffffffffffffffffffffffff021916908373ffffffffffffffffffffffffffffffffffffffff1602179055509050507ff55ac56b494e102ff639207b2d93db4430e489c1084bb050423963e5eb72961c600260009054906101000a900460030b604051808260030b60030b815260200191505060405180910390a15050505050565b600260009054906101000a900460030b81565b6000600160008360030b60030b815260200190815260200160002060030160009054906101000a900473ffffffffffffffffffffffffffffffffffffffff169050919050565b610ad3610bfa565b1515610ade57600080fd5b600160008360030b60030b815260200190815260200160002060030160009054906101000a900473ffffffffffffffffffffffffffffffffffffffff1673ffffffffffffffffffffffffffffffffffffffff166370b8cdd5826040518263ffffffff167c0100000000000000000000000000000000000000000000000000000000028152600401808273ffffffffffffffffffffffffffffffffffffffff1673ffffffffffffffffffffffffffffffffffffffff168152602001915050600060405180830381600087803b158015610bb557600080fd5b505af1158015610bc9573d6000803e3d6000fd5b505050505050565b60008060009054906101000a900473ffffffffffffffffffffffffffffffffffffffff16905090565b60008060009054906101000a900473ffffffffffffffffffffffffffffffffffffffff1673ffffffffffffffffffffffffffffffffffffffff163373ffffffffffffffffffffffffffffffffffffffff1614905090565b610c59610bfa565b1515610c6457600080fd5b600160008360030b60030b815260200190815260200160002060030160009054906101000a900473ffffffffffffffffffffffffffffffffffffffff1673ffffffffffffffffffffffffffffffffffffffff166385e68531826040518263ffffffff167c0100000000000000000000000000000000000000000000000000000000028152600401808273ffffffffffffffffffffffffffffffffffffffff1673ffffffffffffffffffffffffffffffffffffffff168152602001915050600060405180830381600087803b158015610d3b57600080fd5b505af1158015610d4f573d6000803e3d6000fd5b505050505050565b610d5f610bfa565b1515610d6a57600080fd5b610d7381610d76565b50565b600073ffffffffffffffffffffffffffffffffffffffff168173ffffffffffffffffffffffffffffffffffffffff1614151515610db257600080fd5b8073ffffffffffffffffffffffffffffffffffffffff166000809054906101000a900473ffffffffffffffffffffffffffffffffffffffff1673ffffffffffffffffffffffffffffffffffffffff167f8be0079c531659141344cd1fd0a4f28419497f9722a3daafe3b4186f6b6457e060405160405180910390a3806000806101000a81548173ffffffffffffffffffffffffffffffffffffffff021916908373ffffffffffffffffffffffffffffffffffffffff16021790555050565b608060405190810160405280606081526020016060815260200160608152602001600073ffffffffffffffffffffffffffffffffffffffff1681525090565b828054600181600116156101000203166002900490600052602060002090601f016020900481019282601f10610ef057805160ff1916838001178555610f1e565b82800160010185558215610f1e579182015b82811115610f1d578251825591602001919060010190610f02565b5b509050610f2b9190610f2f565b5090565b610f5191905b80821115610f4d576000816000905550600101610f35565b5090565b9056fea165627a7a72305820daa96ea95d7578162b9ad5aff44b3a6ba8d0b814e7ed5797279c813ff018f4a80029",
  "source": "pragma solidity ^0.5.0;\n\nimport './utils/Ownable.sol';\nimport './leth/permissioned_file.sol';\n\ncontract Profile is Ownable {\n\n    event StackItem(int32 _itemId);\n\n    struct Content {\n        string title;\n        string description;\n        string meta;\n        address acl;\n    }\n\n    mapping(int32 => Content) public items; // Key map is the meta\n    int32 public lastItemId = -1;\n\n    function stackItem(string memory title, string memory description, string memory meta, address acl) onlyOwner public {\n        lastItemId = lastItemId + 1;\n        Content memory newItem = Content(title, description, meta, acl);\n        items[lastItemId] = newItem;\n        emit StackItem(lastItemId);\n    }\n\n    function itemAcl(int32 _itemId) view public returns (address) {\n        return items[_itemId].acl;\n    }\n\n    function grantReadAccess(int32 itemId, address _beneficiary) onlyOwner public {\n        PermissionedFile(address(items[itemId].acl)).grantRead(_beneficiary);\n    }\n\n    function revokeAccess(int32 itemId, address _beneficiary) onlyOwner public {\n        PermissionedFile(address(items[itemId].acl)).revokeAccess(_beneficiary);\n    }\n}",
  "sourcePath": "/home/ggarrido/lightstreams/workspace/lightstreams-demo/server/contracts/Profile.sol",
  "compiler": {
    "name": "solc",
    "version": "0.5.1+commit.c8a2cb62.Emscripten.clang"
  },
  "schemaVersion": "3.0.6",
  "updatedAt": "2019-05-22T10:23:21.594Z",
  "devdoc": {
    "methods": {
      "isOwner()": {
        "return": "true if `msg.sender` is the owner of the contract."
      },
      "owner()": {
        "return": "the address of the owner."
      },
      "transferOwnership(address)": {
        "details": "Allows the current owner to transfer control of the contract to a newOwner.",
        "params": {
          "newOwner": "The address to transfer ownership to."
        }
      }
    }
  },
  "userdoc": {
    "methods": {}
  }
}