{
  "contractName": "HelloBlockchainWorld",
  "abi": [
    {
      "constant": true,
      "inputs": [],
      "name": "helloCount",
      "outputs": [
        {
          "name": "",
          "type": "uint256"
        }
      ],
      "payable": false,
      "stateMutability": "view",
      "type": "function"
    },
    {
      "constant": true,
      "inputs": [],
      "name": "owner",
      "outputs": [
        {
          "name": "",
          "type": "address"
        }
      ],
      "payable": false,
      "stateMutability": "view",
      "type": "function"
    },
    {
      "inputs": [],
      "payable": false,
      "stateMutability": "nonpayable",
      "type": "constructor"
    },
    {
      "constant": true,
      "inputs": [],
      "name": "sayHello",
      "outputs": [
        {
          "name": "message",
          "type": "string"
        }
      ],
      "payable": false,
      "stateMutability": "pure",
      "type": "function"
    },
    {
      "constant": false,
      "inputs": [],
      "name": "incrementHelloCount",
      "outputs": [
        {
          "name": "",
          "type": "uint256"
        }
      ],
      "payable": false,
      "stateMutability": "nonpayable",
      "type": "function"
    }
  ],
  "bytecode": "0x608060405234801561001057600080fd5b50336000806101000a81548173ffffffffffffffffffffffffffffffffffffffff021916908373ffffffffffffffffffffffffffffffffffffffff160217905550610337806100606000396000f300608060405260043610610062576000357c0100000000000000000000000000000000000000000000000000000000900463ffffffff1680637ec5b6fe146100675780638da5cb5b14610092578063a636e767146100e9578063ef5fb05b14610114575b600080fd5b34801561007357600080fd5b5061007c6101a4565b6040518082815260200191505060405180910390f35b34801561009e57600080fd5b506100a76101aa565b604051808273ffffffffffffffffffffffffffffffffffffffff1673ffffffffffffffffffffffffffffffffffffffff16815260200191505060405180910390f35b3480156100f557600080fd5b506100fe6101cf565b6040518082815260200191505060405180910390f35b34801561012057600080fd5b506101296102ce565b6040518080602001828103825283818151815260200191508051906020019080838360005b8381101561016957808201518184015260208101905061014e565b50505050905090810190601f1680156101965780820380516001836020036101000a031916815260200191505b509250505060405180910390f35b60015481565b6000809054906101000a900473ffffffffffffffffffffffffffffffffffffffff1681565b60008060009054906101000a900473ffffffffffffffffffffffffffffffffffffffff1673ffffffffffffffffffffffffffffffffffffffff163373ffffffffffffffffffffffffffffffffffffffff161415156102bb576040517f08c379a00000000000000000000000000000000000000000000000000000000081526004018080602001828103825260228152602001807f4f6e6c79206f776e65722063616e2063616c6c20746869732066756e6374696f81526020017f6e2e00000000000000000000000000000000000000000000000000000000000081525060400191505060405180910390fd5b6001805401600181905550600154905090565b60606040805190810160405280600581526020017f68656c6c6f0000000000000000000000000000000000000000000000000000008152509050905600a165627a7a7230582076ae5b02c8d5bb57669d854cf13b08995187036fb9245e3829315487280dfe8c0029",
  "source": "pragma solidity ^0.4.24;\n\ncontract HelloBlockchainWorld {\n    address public owner;\n    uint public helloCount;\n\n    constructor() public {\n        owner = msg.sender;\n    }\n\n    modifier onlyOwner {\n        require(msg.sender == owner, \"Only owner can call this function.\");\n        _;\n    }\n\n    function sayHello() public pure returns (string memory message) {\n        return \"hello\";\n    }\n\n    function incrementHelloCount() onlyOwner public returns (uint) {\n        helloCount = helloCount + 1;\n        return helloCount;\n    }\n}",
  "sourcePath": "/home/ggarrido/goApps/src/github.com/lightstreams-network/lightchain/truffle/contracts/HelloBlockchainWorld.sol",
  "compiler": {
    "name": "solc",
    "version": "0.4.24+commit.e67f0147.Emscripten.clang"
  },
  "schemaVersion": "2.0.1",
  "updatedAt": "2019-03-08T11:34:45.350Z"
}