{
  "contractName": "ACL",
  "abi": [
    {
      "constant": true,
      "inputs": [
        {
          "name": "account",
          "type": "address"
        }
      ],
      "name": "hasAdmin",
      "outputs": [
        {
          "name": "hasAdminAccess",
          "type": "bool"
        }
      ],
      "payable": false,
      "stateMutability": "view",
      "type": "function"
    },
    {
      "constant": false,
      "inputs": [
        {
          "name": "account",
          "type": "address"
        }
      ],
      "name": "grantAdmin",
      "outputs": [],
      "payable": false,
      "stateMutability": "nonpayable",
      "type": "function"
    },
    {
      "constant": false,
      "inputs": [],
      "name": "revokePublicAccess",
      "outputs": [],
      "payable": false,
      "stateMutability": "nonpayable",
      "type": "function"
    },
    {
      "constant": false,
      "inputs": [
        {
          "name": "account",
          "type": "address"
        }
      ],
      "name": "grantRead",
      "outputs": [],
      "payable": false,
      "stateMutability": "nonpayable",
      "type": "function"
    },
    {
      "constant": false,
      "inputs": [
        {
          "name": "account",
          "type": "address"
        }
      ],
      "name": "grantWrite",
      "outputs": [],
      "payable": false,
      "stateMutability": "nonpayable",
      "type": "function"
    },
    {
      "constant": false,
      "inputs": [
        {
          "name": "account",
          "type": "address"
        }
      ],
      "name": "revokeAccess",
      "outputs": [],
      "payable": false,
      "stateMutability": "nonpayable",
      "type": "function"
    },
    {
      "constant": true,
      "inputs": [],
      "name": "getOwner",
      "outputs": [
        {
          "name": "",
          "type": "address"
        }
      ],
      "payable": false,
      "stateMutability": "view",
      "type": "function"
    },
    {
      "constant": true,
      "inputs": [],
      "name": "owner",
      "outputs": [
        {
          "name": "",
          "type": "address"
        }
      ],
      "payable": false,
      "stateMutability": "view",
      "type": "function"
    },
    {
      "constant": true,
      "inputs": [],
      "name": "isOwner",
      "outputs": [
        {
          "name": "",
          "type": "bool"
        }
      ],
      "payable": false,
      "stateMutability": "view",
      "type": "function"
    },
    {
      "constant": false,
      "inputs": [],
      "name": "grantPublicAccess",
      "outputs": [],
      "payable": false,
      "stateMutability": "nonpayable",
      "type": "function"
    },
    {
      "constant": true,
      "inputs": [
        {
          "name": "account",
          "type": "address"
        }
      ],
      "name": "hasRead",
      "outputs": [
        {
          "name": "hasReadAccess",
          "type": "bool"
        }
      ],
      "payable": false,
      "stateMutability": "view",
      "type": "function"
    },
    {
      "constant": true,
      "inputs": [],
      "name": "isPublic",
      "outputs": [
        {
          "name": "",
          "type": "bool"
        }
      ],
      "payable": false,
      "stateMutability": "view",
      "type": "function"
    },
    {
      "constant": false,
      "inputs": [
        {
          "name": "newOwner",
          "type": "address"
        }
      ],
      "name": "transferOwnership",
      "outputs": [],
      "payable": false,
      "stateMutability": "nonpayable",
      "type": "function"
    },
    {
      "inputs": [
        {
          "name": "_owner",
          "type": "address"
        },
        {
          "name": "_isPublic",
          "type": "bool"
        }
      ],
      "payable": false,
      "stateMutability": "nonpayable",
      "type": "constructor"
    },
    {
      "anonymous": false,
      "inputs": [
        {
          "indexed": false,
          "name": "account",
          "type": "address"
        },
        {
          "indexed": false,
          "name": "level",
          "type": "uint8"
        }
      ],
      "name": "PermissionGranted",
      "type": "event"
    },
    {
      "anonymous": false,
      "inputs": [
        {
          "indexed": true,
          "name": "previousOwner",
          "type": "address"
        },
        {
          "indexed": true,
          "name": "newOwner",
          "type": "address"
        }
      ],
      "name": "OwnershipTransferred",
      "type": "event"
    },
    {
      "constant": true,
      "inputs": [],
      "name": "version",
      "outputs": [
        {
          "name": "",
          "type": "uint256"
        }
      ],
      "payable": false,
      "stateMutability": "pure",
      "type": "function"
    }
  ],
  "bytecode": "0x60806040526000600260006101000a81548160ff02191690831515021790555034801561002b57600080fd5b506040516040806113b98339810180604052604081101561004b57600080fd5b8101908080519060200190929190805190602001909291905050508181336000806101000a81548173ffffffffffffffffffffffffffffffffffffffff021916908373ffffffffffffffffffffffffffffffffffffffff1602179055506000809054906101000a900473ffffffffffffffffffffffffffffffffffffffff1673ffffffffffffffffffffffffffffffffffffffff16600073ffffffffffffffffffffffffffffffffffffffff167f8be0079c531659141344cd1fd0a4f28419497f9722a3daafe3b4186f6b6457e060405160405180910390a380600260006101000a81548160ff02191690831515021790555060206040519081016040528060038081111561015657fe5b815250600160008473ffffffffffffffffffffffffffffffffffffffff1673ffffffffffffffffffffffffffffffffffffffff16815260200190815260200160002060008201518160000160006101000a81548160ff021916908360038111156101bc57fe5b0217905550905050505050506111e2806101d76000396000f3fe6080604052600436106100ca576000357c01000000000000000000000000000000000000000000000000000000009004806335950fed146100cf57806335bb3e16146101385780633d0e4a1a1461018957806354fd4d50146101a057806370b8cdd5146101cb5780637e048c211461021c57806385e685311461026d578063893d20e8146102be5780638da5cb5b146103155780638f32d59b1461036c578063a5bfa7461461039b578063c30fc492146103b2578063dc9a15351461041b578063f2fde38b1461044a575b600080fd5b3480156100db57600080fd5b5061011e600480360360208110156100f257600080fd5b81019080803573ffffffffffffffffffffffffffffffffffffffff16906020019092919050505061049b565b604051808215151515815260200191505060405180910390f35b34801561014457600080fd5b506101876004803603602081101561015b57600080fd5b81019080803573ffffffffffffffffffffffffffffffffffffffff16906020019092919050505061050d565b005b34801561019557600080fd5b5061019e610713565b005b3480156101ac57600080fd5b506101b5610833565b6040518082815260200191505060405180910390f35b3480156101d757600080fd5b5061021a600480360360208110156101ee57600080fd5b81019080803573ffffffffffffffffffffffffffffffffffffffff16906020019092919050505061083c565b005b34801561022857600080fd5b5061026b6004803603602081101561023f57600080fd5b81019080803573ffffffffffffffffffffffffffffffffffffffff169060200190929190505050610a43565b005b34801561027957600080fd5b506102bc6004803603602081101561029057600080fd5b81019080803573ffffffffffffffffffffffffffffffffffffffff169060200190929190505050610c4a565b005b3480156102ca57600080fd5b506102d3610e51565b604051808273ffffffffffffffffffffffffffffffffffffffff1673ffffffffffffffffffffffffffffffffffffffff16815260200191505060405180910390f35b34801561032157600080fd5b5061032a610e60565b604051808273ffffffffffffffffffffffffffffffffffffffff1673ffffffffffffffffffffffffffffffffffffffff16815260200191505060405180910390f35b34801561037857600080fd5b50610381610e89565b604051808215151515815260200191505060405180910390f35b3480156103a757600080fd5b506103b0610ee0565b005b3480156103be57600080fd5b50610401600480360360208110156103d557600080fd5b81019080803573ffffffffffffffffffffffffffffffffffffffff169060200190929190505050611000565b604051808215151515815260200191505060405180910390f35b34801561042757600080fd5b5061043061108a565b604051808215151515815260200191505060405180910390f35b34801561045657600080fd5b506104996004803603602081101561046d57600080fd5b81019080803573ffffffffffffffffffffffffffffffffffffffff16906020019092919050505061109d565b005b60006003808111156104a957fe5b600160008473ffffffffffffffffffffffffffffffffffffffff1673ffffffffffffffffffffffffffffffffffffffff16815260200190815260200160002060000160009054906101000a900460ff16600381111561050457fe5b10159050919050565b60038081111561051957fe5b600160003373ffffffffffffffffffffffffffffffffffffffff1673ffffffffffffffffffffffffffffffffffffffff16815260200190815260200160002060000160009054906101000a900460ff16600381111561057457fe5b10151515610610576040517f08c379a000000000000000000000000000000000000000000000000000000000815260040180806020018281038252603b8152602001807f4f6e6c79207573657220776974682041646d696e207065726d697373696f6e2081526020017f6c766c2063616e2063616c6c20746869732066756e6374696f6e2e000000000081525060400191505060405180910390fd5b60206040519081016040528060038081111561062857fe5b815250600160008373ffffffffffffffffffffffffffffffffffffffff1673ffffffffffffffffffffffffffffffffffffffff16815260200190815260200160002060008201518160000160006101000a81548160ff0219169083600381111561068e57fe5b02179055509050507f4bb8f5497a4d4a4036670dab8c94b028b3fedc11ce7fbf55f3f57b3a4d355dc7816003604051808373ffffffffffffffffffffffffffffffffffffffff1673ffffffffffffffffffffffffffffffffffffffff1681526020018260038111156106fc57fe5b60ff1681526020019250505060405180910390a150565b60038081111561071f57fe5b600160003373ffffffffffffffffffffffffffffffffffffffff1673ffffffffffffffffffffffffffffffffffffffff16815260200190815260200160002060000160009054906101000a900460ff16600381111561077a57fe5b10151515610816576040517f08c379a000000000000000000000000000000000000000000000000000000000815260040180806020018281038252603b8152602001807f4f6e6c79207573657220776974682041646d696e207065726d697373696f6e2081526020017f6c766c2063616e2063616c6c20746869732066756e6374696f6e2e000000000081525060400191505060405180910390fd5b6000600260006101000a81548160ff021916908315150217905550565b60006002905090565b60038081111561084857fe5b600160003373ffffffffffffffffffffffffffffffffffffffff1673ffffffffffffffffffffffffffffffffffffffff16815260200190815260200160002060000160009054906101000a900460ff1660038111156108a357fe5b1015151561093f576040517f08c379a000000000000000000000000000000000000000000000000000000000815260040180806020018281038252603b8152602001807f4f6e6c79207573657220776974682041646d696e207065726d697373696f6e2081526020017f6c766c2063616e2063616c6c20746869732066756e6374696f6e2e000000000081525060400191505060405180910390fd5b6020604051908101604052806001600381111561095857fe5b815250600160008373ffffffffffffffffffffffffffffffffffffffff1673ffffffffffffffffffffffffffffffffffffffff16815260200190815260200160002060008201518160000160006101000a81548160ff021916908360038111156109be57fe5b02179055509050507f4bb8f5497a4d4a4036670dab8c94b028b3fedc11ce7fbf55f3f57b3a4d355dc7816001604051808373ffffffffffffffffffffffffffffffffffffffff1673ffffffffffffffffffffffffffffffffffffffff168152602001826003811115610a2c57fe5b60ff1681526020019250505060405180910390a150565b600380811115610a4f57fe5b600160003373ffffffffffffffffffffffffffffffffffffffff1673ffffffffffffffffffffffffffffffffffffffff16815260200190815260200160002060000160009054906101000a900460ff166003811115610aaa57fe5b10151515610b46576040517f08c379a000000000000000000000000000000000000000000000000000000000815260040180806020018281038252603b8152602001807f4f6e6c79207573657220776974682041646d696e207065726d697373696f6e2081526020017f6c766c2063616e2063616c6c20746869732066756e6374696f6e2e000000000081525060400191505060405180910390fd5b60206040519081016040528060026003811115610b5f57fe5b815250600160008373ffffffffffffffffffffffffffffffffffffffff1673ffffffffffffffffffffffffffffffffffffffff16815260200190815260200160002060008201518160000160006101000a81548160ff02191690836003811115610bc557fe5b02179055509050507f4bb8f5497a4d4a4036670dab8c94b028b3fedc11ce7fbf55f3f57b3a4d355dc7816002604051808373ffffffffffffffffffffffffffffffffffffffff1673ffffffffffffffffffffffffffffffffffffffff168152602001826003811115610c3357fe5b60ff1681526020019250505060405180910390a150565b600380811115610c5657fe5b600160003373ffffffffffffffffffffffffffffffffffffffff1673ffffffffffffffffffffffffffffffffffffffff16815260200190815260200160002060000160009054906101000a900460ff166003811115610cb157fe5b10151515610d4d576040517f08c379a000000000000000000000000000000000000000000000000000000000815260040180806020018281038252603b8152602001807f4f6e6c79207573657220776974682041646d696e207065726d697373696f6e2081526020017f6c766c2063616e2063616c6c20746869732066756e6374696f6e2e000000000081525060400191505060405180910390fd5b60206040519081016040528060006003811115610d6657fe5b815250600160008373ffffffffffffffffffffffffffffffffffffffff1673ffffffffffffffffffffffffffffffffffffffff16815260200190815260200160002060008201518160000160006101000a81548160ff02191690836003811115610dcc57fe5b02179055509050507f4bb8f5497a4d4a4036670dab8c94b028b3fedc11ce7fbf55f3f57b3a4d355dc7816000604051808373ffffffffffffffffffffffffffffffffffffffff1673ffffffffffffffffffffffffffffffffffffffff168152602001826003811115610e3a57fe5b60ff1681526020019250505060405180910390a150565b6000610e5b610e60565b905090565b60008060009054906101000a900473ffffffffffffffffffffffffffffffffffffffff16905090565b60008060009054906101000a900473ffffffffffffffffffffffffffffffffffffffff1673ffffffffffffffffffffffffffffffffffffffff163373ffffffffffffffffffffffffffffffffffffffff1614905090565b600380811115610eec57fe5b600160003373ffffffffffffffffffffffffffffffffffffffff1673ffffffffffffffffffffffffffffffffffffffff16815260200190815260200160002060000160009054906101000a900460ff166003811115610f4757fe5b10151515610fe3576040517f08c379a000000000000000000000000000000000000000000000000000000000815260040180806020018281038252603b8152602001807f4f6e6c79207573657220776974682041646d696e207065726d697373696f6e2081526020017f6c766c2063616e2063616c6c20746869732066756e6374696f6e2e000000000081525060400191505060405180910390fd5b6001600260006101000a81548160ff021916908315150217905550565b6000600260009054906101000a900460ff168061108357506001600381111561102557fe5b600160008473ffffffffffffffffffffffffffffffffffffffff1673ffffffffffffffffffffffffffffffffffffffff16815260200190815260200160002060000160009054906101000a900460ff16600381111561108057fe5b10155b9050919050565b600260009054906101000a900460ff1681565b6110a5610e89565b15156110b057600080fd5b6110b9816110bc565b50565b600073ffffffffffffffffffffffffffffffffffffffff168173ffffffffffffffffffffffffffffffffffffffff16141515156110f857600080fd5b8073ffffffffffffffffffffffffffffffffffffffff166000809054906101000a900473ffffffffffffffffffffffffffffffffffffffff1673ffffffffffffffffffffffffffffffffffffffff167f8be0079c531659141344cd1fd0a4f28419497f9722a3daafe3b4186f6b6457e060405160405180910390a3806000806101000a81548173ffffffffffffffffffffffffffffffffffffffff021916908373ffffffffffffffffffffffffffffffffffffffff1602179055505056fea165627a7a72305820eedf1ee3b304c035cea28ac1f7ef1be9cdc0e3b6a96c9e2adeddf86f9a1a72e70029",
  "source": "pragma solidity ^0.5.0;\n\nimport \"./utils/Ownable.sol\";\n\n/**\n * @title Permissioned manages access rights\n * @author Lukas Lukac, Lightstreams, 11.7.2018\n */\ncontract Permissioned is Ownable {\n    /**\n     * The higher permission automatically contains all lower permissions.\n     *\n     * E.g, granting WRITE, automatically grants READ permission.\n     *\n     * Do NOT shuffle these values as business logic in Go codebase is based on their order.\n     *\n     * @see go-lightstreams/lethacl/permission.go\n     *\n     * NO_ACCESS uint value is 0\n     * READ      uint value is 1\n     * WRITE     uint value is 2\n     * ADMIN     uint value is 3\n    */\n    enum Level {NO_ACCESS, READ, WRITE, ADMIN}\n\n    struct Permission {\n        Level level;\n    }\n\n    mapping(address => Permission) permissions;\n    bool public isPublic = false;\n\n    event PermissionGranted(address account, Level level);\n\n    constructor(address _owner, bool _isPublic) Ownable() public {\n        isPublic = _isPublic;\n\n        permissions[_owner] = Permission({\n            level: Level.ADMIN\n            });\n    }\n\n    modifier onlyAdmin {\n        require(permissions[msg.sender].level >= Level.ADMIN, \"Only user with Admin permission lvl can call this function.\");\n        _;\n    }\n\n    function grantPublicAccess() onlyAdmin public {\n        isPublic = true;\n    }\n\n    function revokePublicAccess() onlyAdmin public {\n        isPublic = false;\n    }\n\n    function grantRead(address account) onlyAdmin public {\n        permissions[account] = Permission({\n            level: Level.READ\n            });\n\n        emit PermissionGranted(account, Level.READ);\n    }\n\n    function grantWrite(address account) onlyAdmin public {\n        permissions[account] = Permission({\n            level: Level.WRITE\n            });\n\n        emit PermissionGranted(account, Level.WRITE);\n    }\n\n    function grantAdmin(address account) onlyAdmin public {\n        permissions[account] = Permission({\n            level: Level.ADMIN\n            });\n\n        emit PermissionGranted(account, Level.ADMIN);\n    }\n\n    function revokeAccess(address account) onlyAdmin public {\n        permissions[account] = Permission({\n            level: Level.NO_ACCESS\n            });\n\n        emit PermissionGranted(account, Level.NO_ACCESS);\n    }\n\n    function hasRead(address account) public view returns (bool hasReadAccess) {\n        return isPublic || permissions[account].level >= Level.READ;\n    }\n\n    function hasAdmin(address account) public view returns (bool hasAdminAccess) {\n        return permissions[account].level >= Level.ADMIN;\n    }\n\n    function getOwner() public view returns (address) {\n        return owner();\n    }\n}\n\n/**\n * @title ACL enables access control and management for every Smart Vault file\n * @author Lukas Lukac, Lightstreams, 11.7.2018\n */\ncontract ACL is Permissioned {\n    constructor(address _owner, bool _isPublic) public Permissioned(_owner, _isPublic) {\n    }\n\n    function version() public pure returns (uint256) {\n        return 2;\n    }\n}\n",
  "sourcePath": "/home/ggarrido/lightstreams/workspace/example-nodejs/contracts/Acl.sol",
  "compiler": {
    "name": "solc",
    "version": "0.5.1+commit.c8a2cb62.Emscripten.clang"
  },
  "schemaVersion": "3.0.19",
  "updatedAt": "2019-12-16T12:17:27.819Z",
  "devdoc": {
    "author": "Lukas Lukac, Lightstreams, 11.7.2018",
    "methods": {
      "isOwner()": {
        "return": "true if `msg.sender` is the owner of the contract."
      },
      "owner()": {
        "return": "the address of the owner."
      },
      "transferOwnership(address)": {
        "details": "Allows the current owner to transfer control of the contract to a newOwner.",
        "params": {
          "newOwner": "The address to transfer ownership to."
        }
      }
    },
    "title": "ACL enables access control and management for every Smart Vault file"
  },
  "userdoc": {
    "methods": {}
  }
}