{
  "contractName": "Faucet",
  "abi": [
    {
      "constant": true,
      "inputs": [
        {
          "name": "",
          "type": "address"
        }
      ],
      "name": "topUpRecords",
      "outputs": [
        {
          "name": "",
          "type": "uint256"
        }
      ],
      "payable": false,
      "stateMutability": "view",
      "type": "function"
    },
    {
      "constant": true,
      "inputs": [],
      "name": "topUpLimit",
      "outputs": [
        {
          "name": "",
          "type": "uint256"
        }
      ],
      "payable": false,
      "stateMutability": "view",
      "type": "function"
    },
    {
      "constant": true,
      "inputs": [],
      "name": "owner",
      "outputs": [
        {
          "name": "",
          "type": "address"
        }
      ],
      "payable": false,
      "stateMutability": "view",
      "type": "function"
    },
    {
      "constant": true,
      "inputs": [],
      "name": "isOwner",
      "outputs": [
        {
          "name": "",
          "type": "bool"
        }
      ],
      "payable": false,
      "stateMutability": "view",
      "type": "function"
    },
    {
      "constant": true,
      "inputs": [],
      "name": "balance",
      "outputs": [
        {
          "name": "",
          "type": "uint256"
        }
      ],
      "payable": false,
      "stateMutability": "view",
      "type": "function"
    },
    {
      "constant": false,
      "inputs": [
        {
          "name": "newOwner",
          "type": "address"
        }
      ],
      "name": "transferOwnership",
      "outputs": [],
      "payable": false,
      "stateMutability": "nonpayable",
      "type": "function"
    },
    {
      "inputs": [],
      "payable": false,
      "stateMutability": "nonpayable",
      "type": "constructor"
    },
    {
      "payable": true,
      "stateMutability": "payable",
      "type": "fallback"
    },
    {
      "anonymous": false,
      "inputs": [
        {
          "indexed": true,
          "name": "previousOwner",
          "type": "address"
        },
        {
          "indexed": true,
          "name": "newOwner",
          "type": "address"
        }
      ],
      "name": "OwnershipTransferred",
      "type": "event"
    },
    {
      "constant": false,
      "inputs": [
        {
          "name": "_nextLimit",
          "type": "uint256"
        }
      ],
      "name": "setNewLimit",
      "outputs": [],
      "payable": false,
      "stateMutability": "nonpayable",
      "type": "function"
    },
    {
      "constant": false,
      "inputs": [
        {
          "name": "_beneficiary",
          "type": "address"
        },
        {
          "name": "_requestAmount",
          "type": "uint256"
        }
      ],
      "name": "topUp",
      "outputs": [],
      "payable": false,
      "stateMutability": "nonpayable",
      "type": "function"
    },
    {
      "constant": true,
      "inputs": [
        {
          "name": "_beneficiary",
          "type": "address"
        }
      ],
      "name": "remainingAmount",
      "outputs": [
        {
          "name": "",
          "type": "uint256"
        }
      ],
      "payable": false,
      "stateMutability": "view",
      "type": "function"
    }
  ],
  "bytecode": "0x60806040526012600a0a600a0260015534801561001b57600080fd5b50336000806101000a81548173ffffffffffffffffffffffffffffffffffffffff021916908373ffffffffffffffffffffffffffffffffffffffff1602179055506000809054906101000a900473ffffffffffffffffffffffffffffffffffffffff1673ffffffffffffffffffffffffffffffffffffffff16600073ffffffffffffffffffffffffffffffffffffffff167f8be0079c531659141344cd1fd0a4f28419497f9722a3daafe3b4186f6b6457e060405160405180910390a3610751806100e76000396000f3fe608060405260043610610093576000357c0100000000000000000000000000000000000000000000000000000000900480635a849419146100b057806377ee374b1461011557806383d028031461017a5780638da5cb5b146101a55780638f32d59b146101fc578063b69ef8a81461022b578063d6f7ddf914610256578063d7e612d1146102b1578063f2fde38b146102ec575b6100a83460035461033d90919063ffffffff16565b600381905550005b3480156100bc57600080fd5b506100ff600480360360208110156100d357600080fd5b81019080803573ffffffffffffffffffffffffffffffffffffffff16906020019092919050505061035e565b6040518082815260200191505060405180910390f35b34801561012157600080fd5b506101646004803603602081101561013857600080fd5b81019080803573ffffffffffffffffffffffffffffffffffffffff1690602001909291905050506103bb565b6040518082815260200191505060405180910390f35b34801561018657600080fd5b5061018f6103d3565b6040518082815260200191505060405180910390f35b3480156101b157600080fd5b506101ba6103d9565b604051808273ffffffffffffffffffffffffffffffffffffffff1673ffffffffffffffffffffffffffffffffffffffff16815260200191505060405180910390f35b34801561020857600080fd5b50610211610402565b604051808215151515815260200191505060405180910390f35b34801561023757600080fd5b50610240610459565b6040518082815260200191505060405180910390f35b34801561026257600080fd5b506102af6004803603604081101561027957600080fd5b81019080803573ffffffffffffffffffffffffffffffffffffffff1690602001909291908035906020019092919050505061045f565b005b3480156102bd57600080fd5b506102ea600480360360208110156102d457600080fd5b81019080803590602001909291905050506105cd565b005b3480156102f857600080fd5b5061033b6004803603602081101561030f57600080fd5b81019080803573ffffffffffffffffffffffffffffffffffffffff1690602001909291905050506105ea565b005b600080828401905083811015151561035457600080fd5b8091505092915050565b60006103b4600260008473ffffffffffffffffffffffffffffffffffffffff1673ffffffffffffffffffffffffffffffffffffffff1681526020019081526020016000205460015461060990919063ffffffff16565b9050919050565b60026020528060005260406000206000915090505481565b60015481565b60008060009054906101000a900473ffffffffffffffffffffffffffffffffffffffff16905090565b60008060009054906101000a900473ffffffffffffffffffffffffffffffffffffffff1673ffffffffffffffffffffffffffffffffffffffff163373ffffffffffffffffffffffffffffffffffffffff1614905090565b60035481565b806003541015151561047057600080fd5b6001546104c5600260008573ffffffffffffffffffffffffffffffffffffffff1673ffffffffffffffffffffffffffffffffffffffff168152602001908152602001600020548361033d90919063ffffffff16565b111515156104d257600080fd5b610524600260008473ffffffffffffffffffffffffffffffffffffffff1673ffffffffffffffffffffffffffffffffffffffff168152602001908152602001600020548261033d90919063ffffffff16565b600260008473ffffffffffffffffffffffffffffffffffffffff1673ffffffffffffffffffffffffffffffffffffffff1681526020019081526020016000208190555061057c8160035461060990919063ffffffff16565b6003819055508173ffffffffffffffffffffffffffffffffffffffff166108fc829081150290604051600060405180830381858888f193505050501580156105c8573d6000803e3d6000fd5b505050565b6105d5610402565b15156105e057600080fd5b8060018190555050565b6105f2610402565b15156105fd57600080fd5b6106068161062b565b50565b600082821115151561061a57600080fd5b600082840390508091505092915050565b600073ffffffffffffffffffffffffffffffffffffffff168173ffffffffffffffffffffffffffffffffffffffff161415151561066757600080fd5b8073ffffffffffffffffffffffffffffffffffffffff166000809054906101000a900473ffffffffffffffffffffffffffffffffffffffff1673ffffffffffffffffffffffffffffffffffffffff167f8be0079c531659141344cd1fd0a4f28419497f9722a3daafe3b4186f6b6457e060405160405180910390a3806000806101000a81548173ffffffffffffffffffffffffffffffffffffffff021916908373ffffffffffffffffffffffffffffffffffffffff1602179055505056fea165627a7a723058204aa296e98747159cba0f44d02f7b5a93f8b320e7c6827aed2d243846c29be5250029",
  "source": "pragma solidity ^0.5.0;\n\nimport './utils/SafeMath.sol';\nimport './utils/Ownable.sol';\n\ncontract Faucet is Ownable {\n    using SafeMath for uint256;\n\n    uint256 private constant decimalFactor = 10 ** uint256(18);\n\n    uint256 public topUpLimit = 10 * decimalFactor;\n    mapping(address => uint256) public topUpRecords;\n    uint256 public balance;\n\n    constructor() public {\n    }\n\n    function() external payable {\n        balance = balance.add(msg.value);\n    }\n\n    function setNewLimit(uint256 _nextLimit) onlyOwner public {\n        topUpLimit = _nextLimit;\n    }\n\n    function topUp(address payable _beneficiary, uint256 _requestAmount) public {\n        require(balance >= _requestAmount);\n        require(_requestAmount.add(topUpRecords[_beneficiary]) <= topUpLimit);\n\n        topUpRecords[_beneficiary] = _requestAmount.add(topUpRecords[_beneficiary]);\n        balance = balance.sub(_requestAmount);\n        _beneficiary.transfer(_requestAmount);\n    }\n\n    function remainingAmount(address _beneficiary) public view returns (uint256) {\n        return topUpLimit.sub(topUpRecords[_beneficiary]);\n    }\n}",
  "sourcePath": "/home/ggarrido/lightstreams/workspace/example-nodejs/contracts/Faucet.sol",
  "compiler": {
    "name": "solc",
    "version": "0.5.1+commit.c8a2cb62.Emscripten.clang"
  },
  "schemaVersion": "3.0.19",
  "updatedAt": "2019-12-09T11:07:26.607Z",
  "devdoc": {
    "methods": {
      "isOwner()": {
        "return": "true if `msg.sender` is the owner of the contract."
      },
      "owner()": {
        "return": "the address of the owner."
      },
      "transferOwnership(address)": {
        "details": "Allows the current owner to transfer control of the contract to a newOwner.",
        "params": {
          "newOwner": "The address to transfer ownership to."
        }
      }
    }
  },
  "userdoc": {
    "methods": {}
  }
}